:020000040000FA
:100000008A01202800000000A30003088312A40036
:10001000FF30AB00AC000C1810280B191328162861
:100020002C108D2016282B11251876202C088C05D5
:100030002B088B05831224088300A30E230E0900CE
:100040009120A001A101A201F730A700BD30A800B6
:10005000EC30A9007A30AA000330B600B8010F30A6
:10006000B7002514B80B35284A281830AD00CD202C
:100070000730AE07AE0DAE0D2E0DAE00FF3C0138C1
:10008000B0000714AE0B422807105030B000B00B80
:1000900047283228B70B3228B60DFE30B605B61900
:1000A0005E28361A6928F730A700BD30A800EC306A
:1000B000A9007A30AA000F30B7003228F730A70025
:1000C0000030A800EF30A9000030AA000F30B700C0
:1000D0003228F730A7000030A800F130A9007A30AC
:1000E000AA000F30B7000330B6003228A60B080074
:1000F000A5188228A51427088F0028088E00101440
:1001000087148A28A51029088F002A088E00101449
:1001100007158A282C30A600080010108710071138
:1001200008009720A520BB20AE20C3200800850131
:100130008601870183160313FF308500FF30860098
:10014000F83087008312031308008316031302306C
:100150009F0083120313AD01AE01080081018316D5
:10016000031300308100831203130030900001302C
:10017000A600B001080087100711A501A701A8017A
:10018000A901AA0108008B018B160B178316031314
:100190000C14831203138B170800C1302D049F0029
:1001A0003230AF00AF0BD2281F151F19D5281E08FB
:1001B000AE000130B00008003108B4003208B500CC
:1001C0000310B50C0310340CB5020319EF28B51B4E
:1001D000EC280030B30008000130B30008003208FA
:1001E0000139B50031080139B502B51BEC28E92801
:1001F0003208B5003108B4000310B40C0310350CFC
:10020000B40203190B29B41B08290030B3000800FD
:100210000130B300080031080139B4003208013957
:10022000B402B41B082905293208B5003108B4000E
:100230000310B40C0310350CB4020319222900304A
:10024000B300080031080139B40032080139B402A2
:10025000031D1F290130B3000800F8200130B30648
:100260000800DC200130B306080014210130B30679
:1002700008007F303105B4007F3032053402B3000E
:1002800031083206B500B51F08007F30B3050800FD
:0E029000B1093208B10703080139B3000800B4
:02400E00FA3F77
:00000001FF

