:100000001229000000000800A000030E8312031351
:10001000A3000A08A4008A010C1C1328652083127F
:1000200003130C101A280B1D1A28831203132F1800
:1000300023200B118312031324088A00230E83004C
:10004000A00E200E090083120313B00B08008312C8
:100050000313AF1C3328AF1034088F0033088E0011
:10006000101407153C2883120313AF1432088F00B5
:1000700031088E00101487142C3083120313B00043
:1000800036300605A5003D092505A600A61C4B280F
:10009000B90A0319BA0A83120313261D5228BB0A90
:1000A0000319BC0A83120313261E5928B70A031921
:1000B000B80A83120313A61E6028B50A0319B60AEC
:1000C000831203132508BD000800831203131010C8
:1000D0008710071108008312031385018601870129
:1000E000FF3083168500FF308600F8308700080057
:1000F0000230831603139F00080083120313B50117
:10010000B601B701B801B901BA01BB01BC01BD011B
:1001100008008312031387100711AF01B101B20168
:10012000B301B4017D28831203132C09B2002B09FB
:10013000B100B10A0319B20A0800831203132C0993
:10014000B4002B09B300B30A0319B40A08008312E0
:1001500003138101803083168100831290010130E6
:10016000B00008008B018B160B17831603130C14B9
:100170008B1708006B2078208920A720B2288312D3
:100180000313AB00C1302B049F001D30AC00831261
:100190000313AC0BC7281F15831203131F19CC2898
:1001A000831203131E08080083120313AD00AD0869
:1001B000031DDC280130AD00F93083120313AE00BB
:1001C00083120313AE0BE028AD0BDC28080083126A
:1001D00003132B082C04031DF0280130AB00AC01E5
:1001E000FA30D42083120313AB032B0A0319AC0398
:1001F0002B082C04031DF028080083120313AB0105
:1002000083120313061C0029FF30D420831203132A
:10021000061C0C290130AB0083120313AB08031931
:100220000029080083120313A901AA01BA20FD20A6
:10023000831203132F14B230AB000C30AC009320A8
:100240009A3083120313AB001030AC009D200030B5
:10025000BF2083120313A7001030BF2083120313A3
:10026000A8009A30280203183C2966302802031897
:10027000A929A908031DA929A63083120313AB00DD
:100280000E30AC009320B63083120313AB000D3058
:10029000AC009D20203083120313AB000330AC0070
:1002A000E7201030BF2083120313A8009A302802E1
:1002B000031861296630280203189A29A908031D2A
:1002C0009A29F43083120313A9009A302802031CE0
:1002D00073290714C030AB00DA30AC00E72083127A
:1002E000031307108B290730831203132A02031804
:1002F0008B290714A030AB000F30AC00E72083122D
:1003000003130710A030AB000F30AC00E7208312BE
:100310000313AA0A7329B23083120313AB000C3003
:10032000AC0093209A3083120313AB001030AC0062
:100330009D20DD29B23083120313AB000C30AC00DA
:1003400093209A3083120313AB001030AC009D2031
:10035000DD2966308312031327020318BC29B2304B
:10036000AB000C30AC009320B63083120313AB000B
:100370000D30AC009D20DD299A3083120313270233
:10038000031CCF299A30AB001030AC009D20A63062
:1003900083120313AB000E30AC009320DD29B23082
:1003A00083120313AB000C30AC0093209A308312FD
:1003B0000313AB001030AC009D2083120313A90877
:0803C00003192729A9032729CD
:02400E00FA3F77
:00000001FF
