:100000001229000000000800A000030E8312031351
:10001000A3000A08A4008A010C1C1328652083127F
:1000200003130C101A280B1D1A28831203132B1804
:1000300023200B118312031324088A00230E83004C
:10004000A00E200E090083120313AC0B08008312CC
:100050000313AB1C3328AB1030088F002F088E0021
:10006000101407153C2883120313AB142E088F00BD
:100070002D088E00101487142C3083120313AC004B
:1000800036300605A50039092505A600A61C4B2813
:10009000B50A0319B60A83120313261D5228B70A9C
:1000A0000319B80A83120313261E5928B30A031929
:1000B000B40A83120313A61E6028B10A0319B20AF8
:1000C000831203132508B9000800831203131010CC
:1000D0008710071108008312031385018601870129
:1000E000FF3083168500FF308600F8308700080057
:1000F0000230831603139F00080083120313B1011B
:10010000B201B301B401B501B601B701B801B9013B
:1001100008008312031387100711AB01AD01AE0174
:10012000AF01B0017D28831203132909AE0028090D
:10013000AD00AD0A0319AE0A0800831203132909A2
:10014000B0002809AF00AF0A0319B00A08008312F3
:1001500003138101803083168100831290010130E6
:10016000AC0008008B018B160B17831603130C14BD
:100170008B1708006B2078208920A720B2288312D3
:100180000313A800C13028049F001D30A90083126A
:100190000313A90BC7281F15831203131F19CC289B
:1001A000831203131E08080083120313A900A90871
:1001B000031DDC280130A900F93083120313AA00C3
:1001C00083120313AA0BE028A90BDC280800831272
:1001D00003137F087F04031DF0280130FF00FF0197
:1001E000FA30D42083120313FF037F0A0319FF039D
:1001F0007F087F04031DF028080083120313A80161
:1002000083120313061C0029FF30D420831203132A
:10021000061C0C290130A80083120313A808031937
:1002200000290800BA20FD20831203132B14B230DA
:10023000A8000C30A90093209A3083120313A80061
:100240001030A9009D200030BF2083120313A700A7
:100250006630270203183929B230A8000C30A900F3
:100260009320B63083120313A8000D30A9009D20FF
:1002700023299A30831203132702031C4C299A3036
:10028000A8001030A9009D20A63083120313A800F7
:100290000E30A90093202329B23083120313A80043
:1002A0000C30A90093209A3083120313A800103059
:0602B000A9009D20232996
:02400E00FA3F77
:00000001FF
