:100000005C29000000000800A000030E8312031307
:10001000A3000A08A4008A010C1C1328652083127F
:1000200003130C101A280B1D1A28831203132E1801
:1000300023200B118312031324088A00230E83004C
:10004000A00E200E090083120313AF0B08008312C9
:100050000313AE1C3328AE1033088F0032088E0015
:10006000101407153C2883120313AE1431088F00B7
:1000700030088E00101487142C3083120313AF0045
:1000800036300605A5003C092505A600A61C4B2810
:10009000B80A0319B90A83120313261D5228BA0A93
:1000A0000319BB0A83120313261E5928B60A031923
:1000B000B70A83120313A61E6028B40A0319B50AEF
:1000C000831203132508BC000800831203131010C9
:1000D0008710071108008312031385018601870129
:1000E000FF3083168500FF308600F8308700080057
:1000F0000230831603139F00080083120313B40118
:10010000B501B601B701B801B901BA01BB01BC0123
:1001100008008312031387100711AE01B001B1016B
:10012000B201B3017D28831203132B09B1002A0900
:10013000B000B00A0319B10A0800831203132B0997
:10014000B3002A09B200B20A0319B30A08008312E5
:1001500003138101803083168100831290010130E6
:10016000AF0008008B018B160B17831603130C14BA
:100170008B1708006B2078208920A720B2288312D3
:100180000313AA00C1302A049F001D30AB00831264
:100190000313AB0BC7281F15831203131F19CC2899
:1001A000831203131E08080083120313AC00AC086B
:1001B000031DDC280130AC00F93083120313AD00BD
:1001C00083120313AD0BE028AC0BDC28080083126C
:1001D00003132A082B04031DF0280130AA00AB01E9
:1001E000FA30D42083120313AA032A0A0319AB039B
:1001F0002A082B04031DF028080083120313AA0108
:1002000083120313061C0029FF30D420831203132A
:10021000061C0C290130AA0083120313AA08031933
:100220000029080008000800080008003530831283
:100230000313AA000C30AB0093209A3083120313EF
:10024000AA001030AB009D20903083120313AA0047
:100250000130AB00E720B83083120313AA000B3043
:10026000AB009320943083120313AA001130AB002B
:100270009D28353083120313AA000C30AB00932065
:100280009A3083120313AA001030AB009D209030E7
:1002900083120313AA000130AB00E720A6308312BB
:1002A0000313AA000E30AB009320B6308312031361
:1002B000AA000D30AB009D2883120313A901BA20B8
:1002C000FD20831203132E1416211030BF20831239
:1002D0000313A7009A3027020318722966302702F9
:1002E0000318B3293921203083120313AA000330E5
:1002F000AB00E7201030BF2083120313A7009A3011
:10030000270203188729663027020318B1299A307B
:10031000831203132702031C97290714C030AA0075
:10032000DA30AB00E720831203130710AF29073040
:100330008312031329020318AF290714A030AA005F
:100340000F30AB00E720831203130710A030AA0080
:100350000F30AB00E72083120313A90A9729162157
:100360006529162165290030BF2083120313A800D8
:10037000663028020318CC29B830AA000B30AB0035
:100380009320B63083120313AA000D30AB009D20DA
:1003900083120313071065299A308312031328026E
:1003A000031CE2299430AA001130AB009D20A63036
:1003B00083120313AA000E30AB00932083120313A1
:1003C00007146529B83083120313AA000B30AB0061
:1003D0009320943083120313AA001130AB009D20A8
:0803E0008312031307106529C5
:02400E00FA3F77
:00000001FF
